:020000040000FA
:030000000200D328
:03003300020BCFEE
:03006B00020B0B7A
:03007B00020B78FD
:1000830002087F00000080FB1200E2B900030200B7
:10009300CDE4900101784379028002F0A3D8FCD922
:1000A300FA900243AA82AB839000E578F07901804D
:1000B30015E493A3AC82AD838A828B83F0A3AA82D7
:1000C300AB838C828D83D8E9D9E712101F12008687
:1000D30075D0007581BF75100175110102008B7910
:1000E3000122537769746368004C6967687400324E
:1000F300343230003234333000323433310032356D
:10010300323000323533300032353331003235315D
:10011300300032353131003131313000313131315C
:10012300002D2D2D2D002020204343787878782032
:1001330028202900202020000000000000000000EB
:1001430000000000000000000000000000000000AC
:1001530000002020205449204C5057005265616410
:1001630079004A6F79737469636B20507573680003
:1001730053656E6420436F6D6D616E64004C6967F7
:1001830068742053776974636800446576696365AE
:10019300204D6F64653A2000FF000000000000005E
:1001A3000000000003070E0E1C191B1B1B1B191C50
:1001B3000E0E0703181E0703181C060000061C1862
:1001C30003071E184302014A02022503020000002E
:1001D30000E0F608A3E0F608A3E0F608A3E0F622A1
:1001E300E6F008A3E6F008A3E6F008A3E6F022CAC7
:1001F300C0E0E6F0A308DAFAD0E0FA22CAC0E0E0F1
:10020300A3C582CCC582C583CDC583F0A3C582CCEB
:10021300C582C583CDC583DAE6D0E0CA2270042245
:10022300600D18C6C333C608C633C6D5E0F418221A
:10023300251010AF08F510400215118008F5104085
:10024300021511D2AF22C0D0251010AF08F51050FF
:100253000205118008F51050020511D2AFD0D0224B
:100263002510F58210AF08F510400215118008F52E
:100273001040021511D2AF851183222510F582E4B7
:100283003511F58322E4732510C582C0E0E51134EE
:10029300FFC583C0E0E510C3958224F9F8E4C5A83F
:1002A300858311858210C5A8E8CEF0A3E520F0A3CD
:1002B3007808E608F0A3DEFAEFF0A3E58124FBF863
:1002C300E608F0A3E608F0A30808E608F0A3E608AA
:1002D300F0A315811581D0E0FED0E0F815811581DA
:1002E300E8C0E0EEC0E022851183851082E0A3FE22
:1002F300E0A3F5207808E0A3F608DFFAE0A3FFE027
:10030300A3C0E0E0A3C0E0E0A3C0E0E0A3C0E0E45A
:10031300C5A8858210858311C5A8D083D08222C049
:10032300D02510C582C0E0E51134FFC583C0E0E5E8
:1003330010C3958224F310AF088583118582108042
:1003430008858311858210D2AFC8F0A3E9F0A3EA30
:10035300F0A3EBF0A37908E709F0A3D8FAECF0A334
:10036300EDF0A3EEF0A3EFF0A3D0E0F0A3D0E0F024
:10037300A3D0E0F0A3E520F0A3E5F0F0A3228511DC
:1003830083851082E0C0E0A3E0F9A3E0FAA3E0FBD9
:10039300A37808E0F608A3DFFAE0FCA3E0FDA3E0FE
:1003A300FEA3E0FFA3E0C0E0A3E0C0E0A3E0F5D03C
:1003B300A3E0F520A3E0A3F5F0E4C5A885831185A8
:1003C3008210C5A8D082D083D0E0F8D0E032740286
:1003D3008000C0E0F404120263D0E01201F222D0E4
:1003E30083D082C5F0E493A3C5F0C395F0F5F0E4A0
:1003F30093A3C395F04005E5F0048001E475F00292
:10040300A42582F582E5F03583F583E493A3C0E068
:10041300E493C0E022D083D082CCC0E0E493A36015
:10042300061204421470FAE493A3600612046114E2
:1004330070FAD0E0FCE493A3C0E0E493C0E022C0F0
:10044300E0E493A3D39C5010E493A3C39C400AD04D
:10045300E0D0E0D0E0020435A3A3A3D0E022C0E0C3
:10046300E493A36C7009D0E0D0E0D0E0020435A39C
:10047300A3D0E022C082C08312085CD2AF79017A94
:100483007D7B0112084490017DE0C2E7F0640570B2
:100493003879051205565004D2F08002C2F0A2F05A
:1004A300E492E0900301F0900182E0A2E7400302AE
:1004B300054E900180E0FA900101E06A60030205B5
:1004C3004E740190010202054DE024F59002FEF006
:1004D30090017DE0F91205565004D2F08002C2F07B
:1004E300A2F0E492E0900301F0900185E0F8A3E02C
:1004F300F99002FAE8F0A3E9F09002FF7487F0A301
:100503007401F09002FEE0F83395E0F9E82487F8EF
:10051300E93401F988828983E0900302F0888289B3
:1005230083A3E0A2E7501C9002F9E0FA900180E077
:100533006A601090017EE054DF644170067401909C
:100543000303F0900180E09002F9F0C2AF12086C4F
:1005530002087A7A7E7B0112084490017EE0A2E5CC
:100563002274F512028A8A828B831207F8E96401E6
:10057300700479018073C2AFA882A983900108E84F
:10058300F0A3E9F09002FFE4F0A3F07401900103FB
:10059300F090032E78081201D49001047808120118
:1005A300E375F005900108120B67A3A3A3A3E0A4CE
:1005B30024D490618F1206D9E8906174F0E99061B8
:1005C300751206EEE8906172F0E9906173F0A2AFE4
:1005D300E492E0FAC2AF9001FD7477F0A37404F0E3
:1005E300EAA2E092AFD2AF7900020D6374F6120271
:1005F3008AEAFEEBFF8C088D09890A900103E070FB
:100603000675E1EC75E1E3E9C394674003750A6796
:10061300906193E0542270F812085C740B250A90E1
:10062300010AF01206E66004786180027841E890DE
:10063300010BF0748890010CF0900101E090010D22
:100643001206EE90010EE8F0A3E9F0900110EEF02F
:10065300A3EF1206D9900112E8F0A3E9F07A008023
:10066300208A82A882E50828F582E5093400F5830B
:10067300E0C0E0E82414F582E43401F583D0E0F02F
:100683000AEAC3950A40DA740A250AF97A0A7B0151
:1006930012081B12086C75E1E9E591A2E150FA75A5
:1006A30091FD1206E6600FE4900102F07A4A7B02A4
:1006B30012079AE06004790080027901900103E057
:1006C300700675E1EF75E1ECE97006900101E00455
:1006D300F07F030202EAF0900108120B6BE0F8A32B
:1006E300E0F9221206F4A3A3A3E022F01206F48099
:1006F300EC900108120B6FA3A322C008C009750870
:1007030001750900EB7808120220E50845F2F5F2BD
:10071300C28DEA494BF5B6A28D50FCE5BBFDE5BAA7
:10072300FC750801750900EB7808120220E508F44E
:1007330055F2F5F2ECFAEDFBD009D008227480559E
:10074300C6FA53BEFBE59DA2E550FAE59DA2E24041
:10075300F400740169700774494AF5C68005E970AD
:10076300028AC6E5C6FAE59EFBEA6B70F943BE044E
:1007730022E59EA2E64003790122E9700553C67F74
:100783008008740169700343C680E5C6FAE59EFBE1
:10079300EA6B70F9790022EBC313FBEA13FAEAF868
:1007A300EBF974FF28FA74FF39FB74006870037463
:1007B300006960130000000000000000000000005A
:1007C300000000000080D72274F812028AEAFEEBD0
:1007D300FFEEF8EFF974FF28FE74FF39FF74006829
:1007E300700374006960097AE87B0312079A80E159
:1007F3007F010202EAC082C083906189E04460F015
:1008030074099061FAF074159061B2F0E49061AEEE
:10081300F012086C7900805F74F712028A75E1EEBA
:100823007591FD7C0080108C08EA2508F582EB3475
:1008330000F583E0F5D90CECC39940EB7F0202028B
:10084300EAC082C083800DE5D98A828B83F0A3AA94
:1008530082AB8319E970F0801EC082C0839061A3CC
:10086300E0C2E6F0539AFE800EC082C0839061A37B
:10087300E0D2E6F0439A01D083D08222C0E074F242
:10088300120322A2AFE492E0FEC2AFE5E9A2E65072
:10089300199001FDE07002A3E060099001FD120BC5
:1008A30067120288759B0053E9BFEEA2E092AF7F07
:1008B30001020381C292C280C2F989F9A2F950FCF4
:1008C30000000000D29222C292D280C2F989F9A21A
:1008D300F950FC80EB74F812028AC292D280801223
:1008E300C2F98A828B83E0F5F9A3AA82AB83A2F9CA
:1008F30050FCECF8EDF974FF281C74FF39FDE87027
:1009030001E970DC00000000D2927F010202EAC01C
:1009130082C0838A828B8374FF29C454F04480F994
:100923001208B77C107D00AA82AB831208D8020894
:100933007AEEC0E053F4FBD29243FE0453F3FED2AB
:100943008043FD0179151208B779501208B7790F62
:100953001208CA790E1208B779251208B7791C1242
:1009630008B77A157B001207CB12098879C01208E1
:10097300B77E4079001208CA1EEE70F77929120873
:10098300B7D0E0FE22EEC0E079801208B77E30795E
:10099300201208CA1EEE70F7D0E0FE22EEC0E0126D
:1009A3000A2ED0E0FE2274F712028AEA7001EB608D
:1009B300307C008A828B83E06013C0E01209E7D0A9
:1009C300E0F08A828B83A3AA82AB8380061209E7B5
:1009D3007420F00CECC3941040D97AFF7B01120908
:1009E3001202083F8C08E50824FFF582E43401F580
:1009F300832274F512028AEAFEEBFFE933333354A0
:100A0300F844C0F91208B775080085080AEE250AEC
:100A1300F582EF3400F583E0F91208CA0508E5080A
:100A2300C3940840E5020D6302099FEBFE74FF299E
:100A3300C454F02A4480F91208B7EEF91208CA2206
:100A43007901120C797902120C797903120C7979F4
:100A530004120C797A327B001207CB80E3790012FF
:100A63000774E9601079011207407900120774E9ED
:100A73006003120A43790012074043FE01C2904308
:100A8300FE02C29143FE10C29443FD02C281120BC7
:100A93000112108C43F10243F48043F44043F420E9
:100AA300E59EA2E0E492E0240FFA75FB8075F8005E
:100AB30074204AF5FC75FA53120934D2AF22C0826E
:100AC300C0837900120B01A28150227800A28150C9
:100AD3000478007900E8240108E93400F9C3E894B4
:100AE300F4E99401A2D265D03340E2790153F3FDD6
:100AF30090023AE0A2E0928143FD0202087A53F3A6
:100B0300FD53FDFD438F0222C0E074F1120322C2A4
:100B1300C5E58960487E00750801750900EE78080F
:100B2300120220AF08E5895F602CEEC333F8E4338B
:100B3300F9E8240FF582E93402F583E07002A3E0BB
:100B4300600EE8240FF582E93402120B6512028865
:100B5300EFF45589F5890EEEC3940840BA7F02027B
:100B63000381F583120B6B22120B6F22E0F8A3E0D3
:100B7300F583888222C0E074F1120322C2EBE58A76
:100B830060487E00750801750900EE78081202209E
:100B9300AF08E58A5F602CEEC333F8E433F9E82449
:100BA3001FF582E93402F583E07002A3E0600EE8EA
:100BB300241FF582E93402120B65120288EFF45503
:100BC3008AF58A0EEEC3940840BA8091C0E074F1AE
:100BD300120322C2E8E58B60487E0075080175099F
:100BE30000EE7808120220AF08E58B5F602CEEC39D
:100BF30033F8E433F9E8242FF582E93402F583E08E
:100C03007002A3E0600EE8242FF582E93402120B90
:100C130065120288EFF4558BF58B0EEEC3940540F5
:100C2300BA020B6074F712028AE9FE7B067A107926
:100C3300801206FD8B09A909747F59F9E4C9F8C329
:100C43009428E494004028C3E8943CE494005003BF
:100C530009801CC3E8944AE4940050030980F1C35B
:100C6300E89454E49400500509090980027904EEDC
:100C73006970B602083FC082C083E91203E2010330
:100C8300AC0C8D0C940C990CA00C639001E5908036
:100C93001863900280F7639010E590800C638002E4
:100CA300E58090023AE06401F002087A74F51202DA
:100CB3008AEAFEEBFF750A00750B018056E50B60AF
:100CC30052120D68E0FAA3E0FB79021209A97B3CFA
:100CD3007A00790312099F7B3E7A0F790312099FE9
:100CE300750B00750800750900120C27E964046090
:100CF30006750800750900E5082401F508E50934BF
:100D030000F509C3E50894F4E5099401A2D265D07E
:100D13003340D6120AC1E96401603E120C27E9642C
:100D23000370187401250AC0E08E828F83A3A3E0A9
:100D3300F5F0D0E084E5F0F50A8086120C27E9642B
:100D4300026003020CC0E50A700A8E828F83A3A39C
:100D5300E01480E3150A020CC4120D68A3A3E0F9A2
:100D63007F040202EAE50A75F003A4F8A9F08E8273
:100D73008F83E028FAA3E0398A82F5832274F5127F
:100D8300028A74D41202338A088B09851082851172
:100D930083AC82AD83758302758287740E1201FF63
:100DA300740E12027EAC82AD8375830275829574D4
:100DB3001E1201FF90624AE0120418000A01100E8D
:100DC30002E00D11160E81040E84F20D85E60D89E5
:100DD300EC0D910A0EA5F80DB5FE0D1C0E7C507D91
:100DE30002803A7C557D0280347C5A7D02802E7CC1
:100DF3005F7D0280287C647D0280227C697D028085
:100E03001C7C6E7D0280167C737D0280107C787D55
:100E130002800A7C7D7D0280047C827D02750A0447
:100E2300750B00780A1203D1740712027EAA82ABF3
:100E3300831211337402120249906249E0C4540FC1
:100E43002430C0E0740B12027ED0E0F0AA08AB0994
:100E53001211178A0A8B0BAE0AAF0B740E12027EA5
:100E6300AA82AB83121117EA2EF8EB3FF9C3E89479
:100E730011E99400500BAC08AD09AA82AB831210A0
:100E8300E17A057B0379001209F57A0D7B03790179
:100E93001209F57A157B0379021209F57A1D7B0392
:100EA30079031209F5851082851183AA82AB8379B0
:100EB300011209A9740E12027EAA82AB837902126F
:100EC30009A97AB37B0279031209A97B007A007915
:100ED30001120A2B7B017A007902120A2B7B027A18
:100EE300017901120A2B7B037A017902120A2B740E
:100EF3002C120249020D6374F712028A7A4A7B02AA
:100F030079011209A97ABD7B0279021209A990021B
:100F13003D74EFF0A374BE1210137003120A4374EE
:100F230001900103F075E1EC75E1E3803775080189
:100F330075090078081203D19002FFE0FCA3E0FDDD
:100F43007A3C7B021210997402120249E490030363
:100F5300F0D2AF9002FEE0600B90023CE0700579A6
:100F630001120C79900303E060FAC2AF9002FEE035
:100F730070BB75080080B974F712028A7A437B024A
:100F830079011209A97AC37B0279021209A97AD1DC
:100F93007B0279031209A9E490023BF090023D74AD
:100FA30020F0A374251210137003120A43E4900176
:100FB30003F075E1EF75E1EC802F7A037B001207F4
:100FC3009A0EEEC394034023900239E0701B740120
:100FD300F07A647B001207CB79017C3B7D027AEFC8
:100FE3007BBE1205EFC2AFD2AF7E00A2A0E492E0B7
:100FF300FF7B067A1079801206FD8B09A909EF6041
:1010030008747F59C3945450B1E4900239F080D9E5
:10101300F07A3D7B02120564E964012290023F7479
:1010230007F0A37420F07419900241F07401900248
:1010330042F0120A6012108C1207F8E9640170037F
:10104300120A43D2907ADE7B02120D80120AC1E9A2
:10105300640170F87A5E7B011207CB1209887AEB80
:101063007B0279011209A97A2B7B03120CAFE9FEEB
:1010730012098874016E7005120F7A800874026E6B
:101083007003120EFA120A432253F5FE53FFFE4376
:10109300F70143F3402274F712028A740912027EA5
:1010A300E0FEA3E0FFEAF8EBF980188C828D83E081
:1010B30088828983F0A3A882A9838C828D83A3ACC1
:1010C30082AD838E088F0974FF25081E74FF3509CE
:1010D300FFE5087002E50970D27F020202EA74F8A4
:1010E30012028AEAF8EBF98005A3AA82AB838A820B
:1010F3008B83E070F48C828D83E0A3AC82AD838A12
:10110300828B83F0A3AA82AB8370EAE8FAE9FB7FC0
:10111300010202EAC082C0838A828B838001A3E03A
:1011230070FCE582C39AFAE5839BFBD083D08222CD
:1011330074F712028A740912027EE0FEA3E0FFEA4A
:10114300F8EBF98E088F0974FF25081E74FF350923
:10115300FFE5087002E50960358C828D83E0A3AC5E
:1011630082AD838A828B83F0A3AA82AB8370D4EE91
:10117300FCEFFD74FF2C1E74FF3DFFEC7001ED606E
:101183000DE48A828B83F0A3AA82AB8380E1E8FA21
:07119300E9FB7F020202EA02
:04000005000000D324
:00000001FF
