:020000040000FA
:030000000200D724
:030033000208CAF6
:03004B0002099710
:03006B000207ACDD
:03007B0002083B3D
:1000830002095900000080FBE490010178587902CD
:100093008002F0A3D8FCD9FA7A587B029001077842
:1000A3005879028015E493A3AD82AE838A828B8351
:1000B300F0A3AA82AB838D828E83D8E9D9E77582B8
:1000C3000E75831674001200E975828675830074B9
:1000D300001200E975D0007581BF7510017511011B
:1000E300759F0002008BC09FF59FE473D09F22D0C1
:1000F30083D082C09FE493C0E0740193C0E0740294
:1001030093F59F22000000000000000000000000A3
:1001130000000000000000000000000000000000DC
:1001230000000000000000000000000000000000CC
:1001330000000000000000000000000000000000BC
:1001430000000000000000000000000000000000AC
:10015300000025640A00504552205465737465728B
:100163000032343230003234333000323433310031
:1001730032353230003235333000323533310032EC
:1001830035313000323531310031313130003131E8
:100193003131002D2D2D2D002020204343787878F8
:1001A30078202820290020202000000000000000E3
:1001B300000000000000000000000000000000003C
:1001C300000000002020205449204C505700FF001D
:1001D300000000000000000000004903070E0E1C91
:1001E300191B1B1B1B191C0E0E0703181E070318D4
:1001F3001C060000061C1803071E1801000000302F
:100203003132333435363738394142434445460079
:10021300286E756C6C20706F696E7465722900307E
:100223003132333435363738396162636465660099
:10023300464C4F4154533F2077726F6E6720666F71
:10024300726D617474657220696E7374616C6C6530
:100253006421003F3F3F00000000001200F2BD098F
:10026300001200F2880A001200F2E70A001200F2FC
:10027300200C001200F2AF0C001200F2440D001229
:1002830000F2540D001200F2CF0D001200F2E30D44
:10029300001200F2F70D001200F22B0E001200F212
:1002A300540E001200F2750E001200F2B50E001289
:1002B30000F2DC0E001200F2E10E001200F2E60E74
:1002C300001200F2FB0E001200F2100F001200F2F7
:1002D3004D0F001200F2760F001200F2BC0F001255
:1002E30000F2DB0F001200F2F10F001200F2F60F22
:1002F300001200F25E10001200F27D10001200F2F4
:10030300BA10001200F2DE10001200F20C110012FB
:1003130000F23F11001200F26711001200F2941173
:10032300001200F2BB11001200F2E711001200F2FA
:10033300F711001200F20A12001200F21A12001250
:1003430000F23012001200F24C12001200F2681296
:10035300001200F29712001200F2C112001200F212
:10036300E612001200F2F712001200F2001300125C
:1003730000F20913001200F21E13001200F23313ED
:10038300001200F25213001200F26513001200F281
:100393006813001200F2C013001200F2E5130012FA
:1003A30000F20214001200F23914001200F24A148F
:1003B300001200F27114001200F20A15001200F28A
:1003C3006916001200F2D416001200F2E4160012AD
:1003D30000F2F617001200F2D222001200F2E2211C
:1003E300001200F20C22001200F21823001200F295
:1003F3004F23001200F2782200C008C3E096F508EC
:1004030008A3E096420808A3E096420808A3E096F2
:100413004208A2D265D033E5087001D3D00822C3C5
:10042300E09608A3E09608A3E09608A3E09622E4EA
:10043300CFC0E0E4CEC0E0E4CDC0E0E4CCC0E075E2
:10044300F020E626F608E633F608E633F608E63348
:10045300F6181818EC33FCED33FDEE33FEEF33FFE3
:10046300C3EC9709ED9709EE9709EF97191919400E
:100473000FFFEC97FC09ED97FD09EE97FE1919069E
:10048300D5F0BFECF709EDF709EEF709EFF7191906
:1004930019D0E0FCD0E0FDD0E0FED0E0FF22E4C3C1
:1004A30096F608E496F608E496F608E496F622E053
:1004B30026F008A3E036F008A3E036F008A3E03600
:1004C300F022E0F608A3E0F608A3E0F608A3E0F6BE
:1004D30022E6F008A3E6F008A3E6F008A3E6F0227C
:1004E300E0FCA3E0FDA3E0FEA3E0FF22ECF0A3ED1C
:1004F300F0A3EEF0A3EFF022CAC0E0E6F0A308DA1F
:10050300FAD0E0FA22CAC0E0E0A3C582CCC582C516
:1005130083CDC583F0A3C582CCC582C583CDC583F6
:10052300DAE6D0E0CA22B90010BB0008E88AF084FA
:10053300F8AAF022E4FBC8FA22EB70227B10C8333E
:10054300C8C933C9335007C39AC3DBF280069A5034
:10055300012ADBEAC833F4C8C933F4C9FA2275F0B7
:1005630008E4C833C8C933C933C99AC99B5004C9FD
:100573002AC93BD5F0ECFBC833F4C8E4C9FA2270AE
:100583000422600D18C6C333C608C633C6D5E0F4CB
:100593001822251010AF08F510400C15118008F52E
:1005A3001040021511D2AF2200C0D0251010AF08A1
:1005B300F510500C05118008F51050020511D2AF4B
:1005C300D0D0222510F58210AF08F510400C15117C
:1005D3008008F51040021511D2AF85118322251032
:1005E300F582E43511F583222510F8E43511F9225B
:1005F3002510FAE43511FB222510FCE43511FD2208
:10060300E4732510C582C0E0E51134FFC583C0E063
:10061300E510C3958224F810AF08858311858210F5
:100623008008858311858210D2AFCEF0A3E520F038
:10063300A37808E608F0A3DEFAEFF0A3E58124FA35
:10064300F8E608F0A3E608F0A3E608F0A30808E636
:1006530008F0A3E608F0A315811581D0E0FED0E0F1
:10066300F8158115811581E8C0E0EEC0E0228511FF
:1006730083851082E0A3FEE0A3F5207808E0A3F6CB
:1006830008DFFAE0A3FFE0A3C0E0E0A3C0E0E0A33B
:10069300C0E0E0A3C0E0E0A3C0E010AF0885821093
:1006A3008583118008858210858311D2AFD083D0D2
:1006B300820200EFC0D02510C582C0E0E51134FFEF
:1006C300C583C0E0E510C3958224F310AF0885838A
:1006D300118582108008858311858210D2AFC8F0FE
:1006E300A3E9F0A3EAF0A3EBF0A37908E709F0A3E9
:1006F300D8FAECF0A3EDF0A3EEF0A3EFF0A3D0E073
:10070300F0A3D0E0F0A3D0E0F0A3E520F0A3E5F060
:10071300F0A322851183851082E0C0E0A3E0F9A352
:10072300E0FAA3E0FBA37808E0F608A3DFFAE0FC15
:10073300A3E0FDA3E0FEA3E0FFA3E0C0E0A3E0C0CD
:10074300E0A3E0F5D0A3E0F520A3E0A3F5F010AF1C
:10075300088583118582108008858311858210D2D4
:10076300AFD082D083D0E0F8D0E03274028000C0F2
:10077300E0F4041205C6D0E01204FB2274028000E8
:10078300CCC0E0EDC0E0E510C39CCCAD1150011D21
:1007930010AF068C108D1180068C108D11D2AF1204
:1007A3000508D0E0FDD0E0FC22C0E074F11206B7EA
:1007B300C2C5E589607D7E00EEC394085075750857
:1007C30001750900EE7808120582E508FFE5895FE7
:1007D300605EEEF87900E875F002A4C8AAF075F03F
:1007E30000A42AFA75F002E9A42AF974FD28F58217
:1007F300740139F583E0F8A3E0F9E849602EEEF8D7
:100803007900E875F002A4C8AAF075F000A42AFAEA
:1008130075F002E9A42AF974FD28F582740139F50B
:1008230083E0F8A3E0F5838882120603EFF452898C
:100833000E80857F02020716C0E074F11206B7C26C
:10084300EBE58A607D7E00EEC39408507575080160
:10085300750900EE7808120582E508FFE58A5F60F6
:100863005EEEF87900E875F002A4C8AAF075F0000E
:10087300A42AFA75F002E9A42AF9740D28F5827402
:100883000239F583E0F8A3E0F9E849602EEEF87940
:1008930000E875F002A4C8AAF075F000A42AFA755E
:1008A300F002E9A42AF9740D28F582740239F5835C
:1008B300E0F8A3E0F5838882120603EFF4528A0E70
:1008C30080857F02020716C0E074F11206B7C2E802
:1008D300E58B607D7E00EEC3940550757508017548
:1008E3000900EE7808120582E508FFE58B5F605E7C
:1008F300EEF87900E875F002A4C8AAF075F000A438
:100903002AFA75F002E9A42AF9741D28F582740203
:1009130039F583E0F8A3E0F9E849602EEEF87900B1
:10092300E875F002A4C8AAF075F000A42AFA75F0DD
:1009330002E9A42AF9741D28F582740239F583E0CB
:10094300F8A3E0F5838882120603EFF4528B0E803E
:10095300857F02020716C0E074F21206B7A2AFE465
:1009630033FEC2AFE5E9A2E65020900238E0F8A3D7
:10097300E0F9E849600E900238E0F8A3E0F58388D7
:1009830082120603759B0053E9BFEEA2E092AF7F8C
:1009930001020716C0E074F21206B790023AE0F8BB
:1009A300A3E0F9E849600E90023AE0F8A3E0F5838A
:1009B30088821206037F0102071674F4120605EA01
:1009C300FEEBFF89088E0A8F0B740B2508C0E085A8
:1009D3000A82850B83D0E0F0900108E0F8A3E0F5EC
:1009E300838882A3A3A3A3A3E060067A617B8880A4
:1009F300047A417B88EAC0E0850A82850B83A3D011
:100A0300E0F0EAF8EBF9E4C9F8E8C0E0850A82858A
:100A13000B83A3A3D0E0F0900101E0C0E0850A823C
:100A2300850B83A3A3A3D0E0F0900108E0F8A3E033
:100A3300F5838882A3A3E0F8A3E0F9850A82850BF6
:100A430083A3A3A3A3E8F0A3E9F0850A82850B831C
:100A5300A3A3A3A3A3A3ECF0A3EDF0900108E0F8F4
:100A6300A3E0F5838882E0F8A3E0F9850A82850B89
:100A730083A3A3A3A3A3A3A3A3E8F0A3E9F0790A01
:100A83007F0402067174F21206058A0A8B0B8C0C22
:100A93008D0DE9FFEFF9AC0AAD0B7A0A7B01120267
:100AA3005EE9F5087E00EEC39F5030EEF87900E56D
:100AB3000C28F582E50D39F583E0C0E0E508FA7B03
:100AC30000EEF87900EA28F8EB39F9740A28F58280
:100AD300740139F583D0E0F00E80CBE5082FF97F60
:100AE3000602067174F61206057E7D7F01120372FB
:100AF3001202B27901EEFAEFFB12035A8E828F8350
:100B0300E0C2E7F08E828F83E0640570568E828F99
:100B130083E0F97A7E7B0112035A8E828F83A3E0EE
:100B2300A2E55004D2F08002C2F0A2F0E4339003B5
:100B33002AF0750881750901850882850983A3E078
:100B4300A2E74003020C158E828F83A3A3A3E0F8D0
:100B5300900101E0686003020C159001027401F03A
:100B6300020C158E828F83E024F5900327F08E828A
:100B73008F83E0F97A7E7B0112035A8E828F83A3DF
:100B8300E0A2E55004D2F08002C2F0A2F0E4339078
:100B9300032AF08E828F83A3A3A3A3A3A3A3A3E01B
:100BA300F8A3E0F9900323E8F0A3E9F09003287495
:100BB30087F0A37401F0900327E0F83395E0F990F0
:100BC3000328E028F8A3E039F98808890985088211
:100BD300850983E090032BF0850882850983A3E0D0
:100BE300A2E75022900322E0F88E828F83A3A3A36F
:100BF300E06860128E828F83A3E054DF6441700645
:100C030090032C7401F08E828F83A3A3A3E090033F
:100C130022F01202B81203787F0202067174F712EF
:100C23000605EAFEEBFF120324E96401700479016F
:100C330080751202B8900108EEF0A3EFF09003283C
:100C43007400F0A37400F09001037401F0900104A8
:100C53007400F0A37400F0A37400F0A37400F09088
:100C63000108E0F8A3E0F5838882A3A3A3A3E0F936
:100C730012033C900108E0F8A3E0F5838882E0FAD0
:100C8300A3E0FB120342900108E0F8A3E0F5838898
:100C930082A3A3E0FAA3E0FB1203487A6A7B021261
:100CA300037E1202B279007F0102067174F212060A
:100CB300058A0C8B0D8C0A8D0BE9FF900103E07004
:100CC300031203667A67EFF91203C6E9FF1203847E
:100CD300120372EFF9AC0AAD0BAA0CAB0D1202644E
:100CE300E9F508A9087A0A7B011203541203781262
:100CF3000360E960027E01900108E0F8A3E0F58358
:100D03008882A3A3A3A3A3E0601B9001027400F055
:100D13007A4A7B02120318900102E060047E00808D
:100D2300067E0180027E00900103E0700312036CD3
:100D3300EE7007900101E02401F0EEF97F06020650
:100D430071C082C08390032CE0F9D083D08202006B
:100D5300EF74F21206058A0C8B0D890AECFEEDFF87
:100D63001202B8AA0A900327E0F91203C6E9F508AC
:100D7300750900780812076E900328E0FCA3E0FDD4
:100D8300AA0CAB0D1203D874021205ABEE4F60240C
:100D930090032BE0F5083395E0F509120336E9F8E3
:100DA3007900E508C398F8E50999F98E828F83E8FD
:100DB300F0A3E9F090032C7400F01202B2AA0A9097
:100DC3000327E0F91203C67F06020671C082C083BF
:100DD3009001037401F0120366D083D0820200EF06
:100DE300C082C0839001037400F012036CD083D0DF
:100DF300820200EFE5C65480FB53BEFBE59DA2E5EE
:100E030050FAE59DA2E240F4007401697007744949
:100E13004BF5C68005E970028BC6AAC6A89EEA6890
:100E230070FA43BE040200EFE9FAE59EA2E640042D
:100E33007901801AEA700553C67F800874016A70CD
:100E43000343C680A9C6A89EE96870FA7900020028
:100E5300EFC082C083790112030C790212030C796B
:100E63000312030C790412030C7A327B0012031E63
:100E730080E3C082C08312031243FE01C29043FE8B
:100E830002C29143FE10C29443FD02C28153F3FD9B
:100E930053FDFD438F0253F5FE53FFFE43F701431A
:100EA300F3401202AC1202D61202B2D083D08202F5
:100EB30000EF43F10243F48043F44043F420E59E02
:100EC300A2E0E433240FF9785375FB8075F80074BE
:100ED3002049F5FC88FA0200EFD2AF0200EFC2AF5F
:100EE3000200EFC292C280C2F989F9A2F950FC0054
:100EF300000000D2920200EFC292D280C2F989F9B7
:100F0300A2F950FC00000000D2920200EFC082C0A0
:100F130083C292D280ECF8EDF9E824FFFCE934FFB8
:100F2300FDE8496018C2F98A828B83E0F5F98A8269
:100F33008B83A3AA82AB83A2F950FC80D800000064
:100F430000D292D083D0820200EF74F71206058993
:100F530008EAFEEBFF75F01074FF2508A44480F93E
:100F63001202BE7C107D00EEFAEFFB1202CA7F0173
:100F7300020671C082C08353F4FBD29243FE045332
:100F8300F3FED28043FD0179151202BE790F1202DE
:100F9300E2790E1202BE79251202BE791C1202BE3C
:100FA3007A157B0012031E1202DC1202F479291255
:100FB30002BED083D0820200EF74F7120605798057
:100FC3001202BE7E00EEC39430500879201202C490
:100FD3000E80F27F0102067174F7120605E9FE79AD
:100FE300501202BEEEF91202C47F0102067179109B
:100FF3000200EF74F61206058909EAFEEBFFEE4FD5
:101003006054750800E508C3941050418E828F83A5
:10101300E060248E828F83E0C0E0E508F8790074F5
:101023002728F582740239F583D0E0F08E828F830E
:10103300A3AE82AF838012E508F87900742728F500
:1010430082740239F5837420F0050880B87A277B0F
:1010530002A9091202D07F0202067174F712060573
:1010630079C01202BE7E00EEC3944050087900128C
:1010730002C40E80F27F0102067174F6120605891E
:1010830009EAFEEBFFE50933333354F844C0F912A0
:1010930002BE750800E508C394085016E508F87900
:1010A30000EE28F582EF39F583E0F91202C4050852
:1010B30080E37F0202067174F7120605E9FF8A08CE
:1010C300EBFE75F01074FF2FA425084480F912027B
:1010D300BEEEF91202C47F01020671C082C083E929
:1010E30014600B14600C14600D14600E8014D29005
:1010F3008010D291800CD2948008D28190023774F0
:1011030001F0D083D0820200EFC082C083E9146073
:101113000B14600D14600F1460118019639001802B
:1011230014639002800F639010800A638002900220
:1011330037E06401F0D083D0820200EFC082C08325
:10114300790012029AE9601079011202947900126F
:10115300029AE960031202A07900120294D083D0AC
:10116300820200EFEBC313FBEA13FAEAF8EBF9E8A8
:1011730024FFFAE934FFFBE8496013000000000094
:1011830000000000000000000000000080DD0200FD
:10119300EF74F7120605EAFEEBFFEEF8EFF9E82429
:1011A300FFFEE934FFFFE84960097AE87B03120395
:1011B3001880E77F01020671C082C083906189E0D5
:1011C3004460F09061FA7409F09061B27415F09084
:1011D30061AE7400F012038A1203787900D083D0D1
:1011E300820200EFC082C08390624AE0F9D083D0CC
:1011F300820200EFC082C083906249E0C4540FF9B9
:10120300D083D0820200EFC082C08390032EE0F926
:10121300D083D0820200EFC082C08375F005E9A4B9
:1012230024D490618FF0D083D0820200EFC082C0BB
:1012330083EA906174F0EAF8EBF9E4C9F8E89061A5
:1012430075F0D083D0820200EFC082C083EA906140
:1012530072F0EAF8EBF9E4C9F8E8906173F0D0832F
:10126300D0820200EFC082C083E9FAEA600814600A
:101273000914600A800C78B5800C78D5800878F55D
:10128300800479018007E8906190F07900D083D0E1
:10129300820200EFC082C08375E1EE7591FD780094
:1012A300E8C3995012E8FC7D00EA2CF582EB3DF58A
:1012B30083E0F5D90880E9D083D0820200EFC082B1
:1012C300C083E96017E5D9C0E08A828B83D0E0F060
:1012D3008A828B83A3AA82AB831980E6D083D082D0
:1012E3000200EF75E1E9E591A2E150FA7591FD790C
:1012F300000200EF75E1EC75E1E30200EF75E1EF49
:1013030075E1EC0200EFC082C0839061A3E0C2E606
:10131300F0539AFED083D0820200EFC082C0839044
:1013230061A3E0D2E6F0439A01D083D0820200EFBA
:10133300C082C083A2AFE433F8C2AF900238EAF0B0
:10134300A3EBF0E8A2E092AFD083D0820200EFC01B
:1013530082C083906193E0542270F8D083D08202DC
:1013630000EF0200EF74F6120605EAFEEBFF43E41A
:101373000CC3EE9400EF9420400B7508FF7509FF32
:101383001202A0801DEEF8EFF9E875F008A4C8AAD0
:10139300F075F000A42AFA75F008E9A42AF9880880
:1013A3008909A808A909E4C9F8E8F5DBE508F5DA2D
:1013B30075E54453AFFEC2B97F02020671C082C015
:1013C30083A2AFE433FC7D00ECF8EDF9C2AF9002E9
:1013D3003AEAF0A3EBF0E8A2E092AFD083D0820226
:1013E30000EF75F10075F30C53FFF343868043C59B
:1013F3000B43C2D8C2E943FE0843FD100200EF7459
:10140300F712060578007900C3E89CE99DA2D2652E
:10141300D033501D8A828B83E0F5C18A828B83A3EC
:10142300AA82AB83A2E950FCC2E908E870DA09801A
:10143300D77F01020671C082C0839002567401F007
:10144300D083D0820200EF74F7120605EAFEEBFFA9
:1014530078007980EEFAEFFB120529E8FAE9FB122E
:1014630003907AA87B031203967F0102067174F33B
:10147300120605749012059512039C7508007509F0
:1014830000750A00750B0090025874301205FB7446
:1014930040120508750C0090029874021205FB7443
:1014A3000E1205087E0090023C74EFF0A374BEF0A8
:1014B3007A3C7B02120270E9640170031202A012EB
:1014C300028812027CE960FAAC10AD1179677A4C9C
:1014D3007B02120282E960EA790112030C85108211
:1014E30085118312077F7CA67D0274121205F31205
:1014F30003E474021205ABEAFFEFFC7D00741012E3
:1015030005F31203A280BB74F012060574FC1205E6
:1015130095750800750900750A00750B0085108222
:101523008511837400F0A37400F0A37400F0A37416
:1015330000F090023C7420F0A37425F07A3C7B0207
:10154300120270E9640170031202A0790212034EC1
:10155300E978E879037A007B00880889098A0A8B8D
:101563000B12028E7AC87B001203AE900242740003
:10157300F0A37400F0A37400F0A37400F09002468B
:101583007401F09002477402F0900257E060FA850C
:10159300108285118378081204225045790A7C420F
:1015A3007D027AEF7BBE120276E990034F780C122C
:1015B30004C5900242780C1204B290034F780C12C7
:1015C30004C5851082851183780C1204B2900256EB
:1015D3007400F0790112030C7A287B0012031E8039
:1015E300A88510828511837400F0A37400F0A3749E
:1015F30000F0A37400F09002427400F0A37400F0B2
:10160300A37400F0A37400F002158C9002567400CA
:10161300F09002577401F090023E7407F0A3742017
:10162300F09002417400F01202A6120324E964014F
:1016330070031202A079011203067AAA7B02120335
:10164300CC7A5E7B0112031E900240740BF07E0184
:10165300EE70051203BA800874016E70031203B4AE
:101663001202A00200EFE914605414602124F16017
:10167300532490603D24FD602714601824FC601AF5
:1016830024F8603424EC601E24F06020803C7AB59A
:101693007B02803A7ABA7B0280347ABF7B02802E47
:1016A3007AC47B0280287AC97B0280227ACE7B02AD
:1016B300801C7AD37B0280167AD87B0280107ADD75
:1016C3007B02800A7AE27B0280047AE77B020200D3
:1016D300EFE9F8E8C39A5004E8F98002EAF9020056
:1016E300EF74F012060574D41205958A088B0990DD
:1016F30002ECAC10AD11740E1205089002FA740ED0
:101703001205FB741E1205081202E8E9F50A12031A
:101713002AE9F9750C04750D00780C12076E120393
:10172300C0EAFCEBFD74071205E1AA82AB83120346
:10173300F674021205AB120330E92430C0E0740BD7
:101743001205E1D0E0F0AA08AB091203F08A0C8B72
:101753000D850C0E850D0FE50AFE7F00740E120534
:10176300F31203F08A0C8B0DE50E250CF8E50F350B
:101773000DF9C3EE98EF99400CAC08AD09740E1245
:1017830005F31203EA7A2F7B0379001202FA7A3700
:101793007B0379011202FA7A3F7B0379021202FA80
:1017A3007A477B0379031202FAAA10AB117901126B
:1017B30002EE740E1205F379021202EE7A187B031D
:1017C30079031202EE7B007A0079011203007B0198
:1017D3007A0079021203007B027A01790112030075
:1017E3007B037A017902120300742C1205AB7F0884
:1017F30002067174F012060574B312059585108202
:10180300851183EAF0A3EBF0740F1205E1ECF0A36A
:10181300EDF0740B1205E1E4F0A3801B745D120577
:10182300E11220DD740F1205E11220ED120603749C
:101833000B1205E1122177F01220FAF98510828547
:101843001183E02401FAA3E03400FB8510828511A3
:1018530083EAF0A3EBF07425696015E970BE740B9D
:101863001205E11220DD744D1205AB7F08020671EB
:101873001220FA64257019851082851183E02401F2
:1018830008122180745D1205E11220DD7925809410
:10189300740E1205E1E4F0740D1205E1E4F074082E
:1018A3001205E1E4F074071205E1E4F0741B12057C
:1018B300EB74021205E112218B74191205E17453C2
:1018C300F0A37403801974071205E1E0700774072D
:1018D3001205E1EAF0851082851183E8F0A3E9F0AF
:1018E30012214BFAA3E0F5838A82E0FA24E060D662
:1018F30024FD601724F860D624FE600624FD600FE3
:10190300801174081205E1E00480C9740D80F57438
:101913000E80F18510828511831220D4E0642A7031
:1019230044745F1205E11220D41220DDEAFCEBFDC2
:101933008A82F5831220DDEC2402FC50010D745FD2
:101943001205E1122120C3EB1220A55013C3E49A20
:10195300FCE49BFDECFAEDFB74081205E1E004F0F6
:10196300122185803C7A007B00802AEA75F00AA464
:10197300FAA9F075F00AEBA429FBEA28F8E43BF98D
:10198300E824D0FAE934FFFB851082851183E02433
:1019930001F81221801220FAF874D028C3940A4067
:1019A300CA74081205E1E06007740E1205E1E4F061
:1019B3001220FA642E6003021A4785108285118370
:1019C3001220CA851082851183E8F0A3E91221B0A1
:1019D300642A702E745F1205E112210EF98882F5D4
:1019E300831220C474041205E1ECF0A3EDF0E824A3
:1019F30002F8500109745F1205E11221571221B751
:101A0300804B74041205E1E4F0A31221B0FC74D0FE
:101A13002CC3940A503874041205E11220BD75F0EA
:101A23000AA4F8ADF075F00AE9A42DF9E82CF8E45E
:101A330039F9E824D0F8E934FFF974041205E11206
:101A430021B780C674041205E174FFF0A3F07C0093
:101A530012214BFDA3E0F5838D82E024B4600824BA
:101A6300E4600624FC70057C011221851220FAC073
:101A7300E074061205E1D0E01221BBF074061205F2
:101A8300E1E07003021F4824BB7003021F1324FE0E
:101A93007003021F1324EF7003021C6924F5700303
:101AA300021B48147003021D0A147003021F13144F
:101AB3007003021F13147003021F1324FE7003022A
:101AC3001D0A24FB6024147003021C3F14700302DC
:101AD3001C6924FD7003021B8824FE7003021C6929
:101AE30024FD7003021C5D021F54745F1205E11292
:101AF3002164E8FEE9FFE5082402F5085002050920
:101B0300ECA2E0740B50271205E11220B73395E0E5
:101B1300FA8E828F8312218BA3EAF0A3F0745F12F3
:101B230005E11220EDE508F0A3E50902183A1205D4
:101B3300E11220B78E828F8312218B745F1205E12D
:101B43001220D480E0745F1205E112210EF5838820
:101B530082E0C0E0741B1205E1D0E0F0745F12056F
:101B6300E11221002402F8A3E03400F9745F1205A6
:101B7300E112215712218B741C1205E1A882A9835B
:101B83007409021C35745F1205E1122164E508240F
:101B930002FCE43509FD745F1205E1122120740291
:101BA3001205E112218BE849700C74021205E174ED
:101BB30064F0A37403F074041205E1122115500CB0
:101BC30074041205E17410F0A37427F07E007F0003
:101BD30080050EEE70010F74021205E11220B78822
:101BE30082F583A3AC82AD8374021205E1ECF0A30A
:101BF300EDF088828983E0601474041205E11220F9
:101C0300B7C3EE98EF99A2D265D03340C5740212E0
:101C130005E112212E74091205E112218BC3E49E02
:101C2300F8E49FF974091205E1E028F8A3E039F913
:101C330074021205E1E8F0A3E9021F6B740D1205AB
:101C4300E1E0601674041205E11220BD49700B74C3
:101C5300041205E17401F0A3E4F074191205E174B0
:101C630073F0A37403F0745F1205E112213C740650
:101C73001205E1E0647070388508828509831220BB
:101C8300C474111205E1ECF0A3ED1221A9E50812C9
:101C930020AD1205E112215712218B74151205E1B3
:101CA30074101221A9A3F074071205E1E4021D7F49
:101CB300ECA2E0E50850161220921205E1122191E0
:101CC3001204E374111205E11204EF80191220AD1E
:101CD3001205E11221A4F8A3E0F974111205E1E859
:101CE300F0A3E91221A974061205E1E0646F7009FB
:101CF30074151205E1740880A9E06475709D74156C
:101D03001205E1740A809B745F1205E112213CEC19
:101D1300A2E0E50850101220921205E112219178F9
:101D2300081204C580161220AD1205E11221A4F594
:101D330008A3E0F5093395E0F50AF50B74111205D4
:101D4300E178081204D49003AB78081203FC402115
:101D530074071205E1742DF074111205E17808126D
:101D630004C578081204A174111205E1780812045D
:101D7300D474151205E1740A1221A9A3F0744C124C
:101D830005E1A882A98374021205E112218B74096B
:101D93001205E112218B74111205E11204E3EC4DDB
:101DA3004E4F6004D2008010C20074041205E11289
:101DB30020BD497003021E8274021205E112212E16
:101DC30074021205E112218B74111205E1780C12D1
:101DD30004C574151205E178081204C5780C790856
:101DE30012043274191205E1E02508F8A3E035095D
:101DF3008882F583E0C0E074021205E11220EDD081
:101E0300E0F074111205E1780C1204C57415120583
:101E1300E178081204C5780C79081204327411129F
:101E230005E1780C1204D474111205E11204E3ECF9
:101E33004D4E4F708374041205E112211550407406
:101E43000E1205E1E0603874071205E1E06004D288
:101E5300F08002C2F0A2F0E433F8EA98F8EB9400C1
:101E6300F974041205E1E8F0A3E980127402120583
:101E7300E112218B74021205E11220ED7430F0742B
:101E8300021205E112212E744C1205E1C082C083B7
:101E930074021205E11220C4D083D082E582C39C70
:101EA300FEE5839DFF74041205E11220C4C3EE9C7A
:101EB300EF9DA2D265D03340B3740D1205E1E070FB
:101EC30003021F6CA2004003021F6C74061205E19B
:101ED300E064786005E064587010E088828983F0DC
:101EE300E824FF18E934FFF98012E0646F707A7414
:101EF300021205E1122157E06430606D740212058D
:101F0300E112218B74021205E11220ED7430805826
:101F130074021205E17484F0A37403F074091205CA
:101F2300E17484F0A37403F074091205E112210033
:101F3300603774091205E11220CA74091205E1E839
:101F4300F0A3E980E28510828511831221331221E7
:101F53008474021205E174A7F0A37403F0740912E8
:101F630005E174AAF0A37403F074091205E1C082B9
:101F7300C08374021205E11220B7D083D082E0C37C
:101F830098F8A3E099F974041205E112218B740403
:101F93001205E1E0F8C3EA98EB99A2D265D0335079
:101FA300067E007F00802174071205E1E06004D201
:101FB300F08002C2F0EAC398F8EB99F9A2F0E43397
:101FC300FAE89AFEE99400FF74081205E1E0702034
:101FD3008019745D1205E11220E31205E11220ED70
:101FE300120603740B1205E112217212209C50E2B7
:101FF30074071205E1E06051745D1205E11220DD02
:1020030074071205E1E0F9740F1205E11220ED12D5
:102013000603802D745D1205E11220DD74021205A2
:10202300E1122100F9740F1205E11220ED120603EB
:1020330074021205E1E01221D074021205E11221AB
:102043008B740B1205E112217274041205E1E02472
:10205300FFF0A3E034FFF074041205E112211550E0
:10206300B374081205E1E0700302183B12209C5080
:102073000302183B745D1205E11220E31205E1121D
:1020830020ED120603740B1205E112217280DD2488
:1020930004F8E43509F9745F22EE24FF1EEF34FFE0
:1020A300FFC39400A2D265D033222402F8E4350999
:1020B300F9745F22E0F8A3E0F922E0F8A3E0F9E87D
:1020C30022E0FCA3E0FD22E0240108A3E03400F9B0
:1020D30022E0FAA3E0F5838A8222E0FAA3E0FB225E
:1020E300E0FAA3E0FB7920740F221220F122E0F83A
:1020F300A3E0F5838882228510828511831221044F
:1021030022E0F8A3E0F5838882E022122104F8A3F9
:10211300E022C3A3E09400A2D265D03322E0FEA361
:10212300E0F5838E82ECF0A3EDF022122133F92245
:10213300E024FFF8A3E034FF22122140221220F111
:10214300E0F508A3E0F50922851082851183E012EA
:1021530021C6E02212215B22E0FCA3E0F5838C82FE
:1021630022122140850882F583E0F8A3E0F92212C8
:102173002177F022E02401F0A3E0340022A3E0342D
:1021830000F9851082851183E8F0A3E9F02212217A
:10219300952212215BE8F0A3E9F085088285098383
:1021A30022122195E022F0A3E4F0A3F0221221D918
:1021B30012210522E8F0A3E91221D91221C6E8F081
:1021C300A3E9221221D0851082851183222401F8EC
:1021D300A3E03400F922F0851082851183E022C048
:1021E30082C0838A828B8312226FE9F08A828B8377
:1021F300E02401FCA3E03400FD8A828B83ECF0A38E
:10220300EDF0D083D0820200EF74F612060574FC61
:1022130012059574021205E1EAF0A3EBF0ECFAED76
:10222300FB740E1205EB851082851183E8F0A3E998
:10223300F0A810A91188088909780812076E740498
:102243001205EB88088909780812076E7CDE7D0386
:102253001203D274041205AB74021205E112226F49
:10226300E4F074041205AB7F02020671E0F8A3E008
:10227300F58388822274F6120605EAF8EBF9740AEC
:102283001205E1E0FEA3E0FF8E088F09E50824FFB5
:102293001EE50934FFFFE5084509602A8C828D831A
:1022A300E0F508A3AC82AD838A828B83F0A3AA8274
:1022B300AB8370D4EE4F600EE4F0A3EE24FF1EEF69
:1022C30034FFFF4E70F2E8FAE9FB7F0202067174F5
:1022D300F6120605EAF8EBF9740A1205E1E0FEA32B
:1022E300E0FF80188C828D83E088828983F0A3A825
:1022F30082A9838C828D83A3AC82AD838E088F09E0
:10230300E50824FF1EE50934FFFFE508450970D4FD
:102313007F0202067174F7120605EAF8EBF98005ED
:10232300A3AA82AB838A828B83E070F48C828D8331
:10233300E0FEA3AC82AD838A828B83F0A3AA82AB37
:102343008370E9E8FAE9FB7F01020671C082C0836A
:102353008A828B838001A3E070FCE582C39AFAE54D
:0A236300839BFBD083D0820200EFC1
:04000005000000D720
:00000001FF
