:020000040000FA
:030000000200D328
:03003300020BCAF3
:03006B00020B0E77
:03007B00020B7302
:100083000207A100000080FB1200E2B90003020096
:10009300CDE490010178E879018002F0A3D8FCD97E
:1000A300FA9001E8AA82AB839000E5786E7902802A
:1000B30015E493A3AC82AD838A828B83F0A3AA82D7
:1000C300AB838C828D83D8E9D9E712117112008634
:1000D30075D0007581BF75100175110102008B7910
:1000E3000122434831312000434831322000434844
:1000F3003133200043483134200043483135200058
:1001030043483136200043483137200043483138D3
:10011300200043483139200043483230200043480F
:10012300323120004348323220004348323320002A
:1001330043483234200043483235200043483236A6
:100143002000323432300032343330003234333131
:10015300003235323000323533300032353331003E
:100163003235313000323531310031313130003107
:10017300313131002D2D2D2D00202020434378785F
:10018300787820282029002020200000000000008B
:10019300000000000000000000000000000000005C
:1001A30000000000002020205449204C50570053E9
:1001B3007065637472756D20416E6C002064426DCE
:1001C3000049020001000003070E0E1C191B1B1B34
:1001D3001B191C0E0E0703181E0703181C0600002C
:1001E300061C1803071E18000000000000001F0073
:1001F30000000000001F1F00000000001F1F1F0061
:100203000000001F1F1F1F0000001F1F1F1F1F00D4
:10021300001F1F1F1F1F1F001F1F1F1F1F1F1F1F29
:100223001F1F1F1F1F1F1FE801EE01F401FA01002A
:100233000206020C02120218021E0224022A0230D3
:100243000236023C024202000000000A000000E005
:1002530066701008A3E066700A08A3E066700408DD
:10026300A3E06622C3E09608A3E09608A3E09608FD
:10027300A3E096A2D265D03322E4CFC0E0E4CEC09F
:10028300E0E4CDC0E0E4CCC0E075F020C3E633F693
:1002930008E633F608E633F608E633F6181818ECE2
:1002A30033FCED33FDEE33FEEF33FFC3EC9709ED83
:1002B3009709EE9709EF97191919400FFFEC97FC6F
:1002C30009ED97FD09EE97FE191906D5F0BEECF777
:1002D30009EDF709EEF709EFF7191919D0E0FCD08A
:1002E300E0FDD0E0FED0E0FF2212035418181812EC
:1002F300027C12034319191922120343191919080D
:100303000808E618181820E7E012027C12035418B4
:10031300181822090909E719191920E7DC08080840
:10032300E618181820E70302027C12035418181861
:1003330012027C12035418181812034319191922B4
:10034300E4C397F709E497F709E497F709E497F704
:1003530022E4C396F608E496F608E496F608E496D3
:10036300F622E0F608A3E0F608A3E0F608A3E0F619
:1003730022E6F008A3E6F008A3E6F008A3E6F022DD
:10038300CAC0E0E6F0A308DAFAD0E0FA22CAC0E075
:10039300E0A3C582CCC582C583CDC583F0A3C58246
:1003A300CCC582C583CDC583DAE6D0E0CA22C3E4D7
:1003B30098F8E499F91203F28026C3E49AFAE49BCD
:1003C300FBE920E7E91203F2E498F8E499F922C380
:1003D300E498F8E499F91203F2E498F8E499F9C37C
:1003E300E49AFAE49BFB22EB20E7CFE920E7E0B9AC
:1003F3000010BB0008E88AF084F8AAF022E4FBC8E6
:10040300FA22EB70227B10C833C8C933C9335007B3
:10041300C39AC3DBF280069A50012ADBEAC833F49D
:10042300C8C933F4C9FA2275F008E4C833C8C9331C
:10043300C933C99AC99B5004C92AC93BD5F0ECFBFF
:10044300C833F4C8E4C9FA22700422600D18C6C385
:1004530033C608C633C6D5E0F41822251010AF08FA
:10046300F510400215118008F51040021511D2AFA6
:1004730022C0D0251010AF08F510500205118008D6
:10048300F51050020511D2AFD0D0222510F58210FD
:10049300AF08F510400215118008F5104002151140
:1004A300D2AF851183222510F582E43511F583221D
:1004B300E4732510C582C0E0E51134FFC583C0E0B5
:1004C300E510C3958224F9F8E4C5A88583118582D4
:1004D30010C5A8E8CEF0A3E520F0A37808E608F05D
:1004E300A3DEFAEFF0A3E58124FBF8E608F0A3E628
:1004F30008F0A30808E608F0A3E608F0A3158115A1
:1005030081D0E0FED0E0F815811581E8C0E0EEC0AF
:10051300E022851183851082E0A3FEE0A3F5207815
:1005230008E0A3F608DFFAE0A3FFE0A3C0E0E0A33E
:10053300C0E0E0A3C0E0E0A3C0E0E4C5A88582106A
:10054300858311C5A8D083D08222C0D02510C5824F
:10055300C0E0E51134FFC583C0E0E510C3958224F4
:10056300F310AF0885831185821080088583118578
:100573008210D2AFC8F0A3E9F0A3EAF0A3EBF0A393
:100583007908E709F0A3D8FAECF0A3EDF0A3EEF0B5
:10059300A3EFF0A3D0E0F0A3D0E0F0A3D0E0F0A36A
:1005A300E520F0A3E5F0F0A322851183851082E016
:1005B300C0E0A3E0F9A3E0FAA3E0FBA37808E0F628
:1005C30008A3DFFAE0FCA3E0FDA3E0FEA3E0FFA3A2
:1005D300E0C0E0A3E0C0E0A3E0F5D0A3E0F520A3F2
:1005E300E0A3F5F0E4C5A8858311858210C5A8D0E2
:1005F30082D083D0E0F8D0E03274048004740280A7
:1006030000C0E0F40412048ED0E012038322D083EE
:10061300D082C5F0E493A3C5F0C395F0F5F0E4935D
:10062300A3C395F04005E5F0048001E475F002A44E
:100633002582F582E5F03583F583E493A3C0E0E4F6
:1006430093C0E022D083D082CCC0E0E493A36006C1
:100653001206711470FAE493A360061206901470E4
:10066300FAD0E0FCE493A3C0E0E493C0E022C0E04E
:10067300E493A3D39C5010E493A3C39C400AD0E01B
:10068300D0E0D0E0020664A3A3A3D0E022C0E0E45C
:1006930093A36C7009D0E0D0E0D0E0020664A3A37A
:1006A300D0E022C008C009750801750900EB78087D
:1006B30012044BE50845F2F5F2C28DEA494BF5B653
:1006C300A28D50FCE5BBFDE5BAFC75080175090078
:1006D300EB780812044BE508F455F2F5F2ECFAED69
:1006E300FBD009D00822748055C6FA53BEFBE59DA2
:1006F300A2E550FAE59DA2E240F400740169700797
:1007030074494AF5C68005E970028AC6E5C6FAE56A
:100713009EFBEA6B70F943BE0422E59EA2E640030A
:10072300790122E9700553C67F800874016970035B
:1007330043C680E5C6FAE59EFBEA6B70F9790022B1
:10074300EBC313FBEA13FAEAF8EBF974FF28FA7424
:10075300FF39FB74006870037400696013000000C4
:10076300000000000000000000000000000080D72F
:100773002274F81204B5EAFEEBFFEEF8EFF974FF0A
:1007830028FE74FF39FF7400687003740069600900
:100793007AE87B0312074380E17F01020515C0E07D
:1007A30074F212054DA2AFE492E0FEC2AFE5E9A2F6
:1007B300E65019900101E07002A3E0600990010185
:1007C300120B6A1204B3759B0053E9BFEEA2E092C9
:1007D300AF7F010205ACC292C280C2F989F9A2F9C6
:1007E30050FC00000000D29222C292D280C2F9894A
:1007F300F9A2F950FC80EB74F81204B5C292D280CE
:100803008012C2F98A828B83E0F5F9A3AA82AB83B3
:10081300A2F950FCECF8EDF974FF281C74FF39FDC4
:10082300E87001E970DC00000000D2927F0102054C
:1008330015C082C0838A828B8374FF29C454F04419
:1008430080F91207D97C107D00AA82AB831207FAC4
:100853000210CFEEC0E053F4FBD29243FE0453F3F5
:10086300FED28043FD0179151207D979501207D9B9
:10087300790F1207EC790E1207D979251207D97966
:100883001C1207D97A157B0012077479801207D9D5
:100893007E3079201207EC1EEE70F779C01207D96B
:1008A3007E4079001207EC1EEE70F779291207D902
:1008B300D0E0FE22EEC0E012094AD0E0FE2274F737
:1008C3001204B5EA7001EB60307C008A828B83E00E
:1008D3006013C0E0120901D0E0F08A828B83A3AADF
:1008E30082AB8380061209017420F00CECC39410D0
:1008F30040D97A037B011208347F020205158C0864
:10090300E5082403F582E43401F5832274F5120427
:10091300B5EAFEEBFFE933333354F844C0F9120769
:10092300D975080085080AEE250AF582EF3400F52B
:1009330083E0F91207EC0508E508C3940840E57F56
:10094300040205150208B7EBFE74FF29C454F02A0C
:100953004480F91207D9EEF91207EC227901120D3E
:10096300377902120D377903120D377904120D37D7
:100973007A327B0012077480E3790012071DE96065
:100983001079011206E9790012071DE960031209C3
:100993005F79001206E943FE01C29043FE02C29151
:1009A30043FE10C29443FD02C28153F3FD53FDFD88
:1009B300438F0212116443F10243F48043F4404332
:1009C300F420E59EA2E0E492E0240FFA75FB807523
:1009D300F80074204AF5FC75FA53120856D2AF2278
:1009E30074F71204B58A828B83A3A3E0FC601675A7
:1009F30008017509008A828B83A3E0780812044BEF
:100A0300E5086C600579FF020AC48A828B83E012D1
:100A130006110002080A1F0A560A8D0AECF455F360
:100A2300F5F38A828B83A3A3A3E06401701F8A82F8
:100A33008B83A3A3A3A3E064017005EC458080042A
:100A4300ECF45580F580EC45FDF5FD8072ECF45532
:100A5300FD80F6ECF455F4F5F48A828B83A3A3A30B
:100A6300E06401701F8A828B83A3A3A3A3E06401C4
:100A73007005EC45908004ECF45590F590EC45FE40
:100A8300F5FE803BECF455FE80F6ECF455F5F5F5F8
:100A93008A828B83A3A3A3E06401701D8A828B8364
:100AA300A3A3A3A3E064017005EC45A08004ECF4C8
:100AB30055A0F5A0EC45FF8004ECF455FFF5FF7954
:100AC300000208FCC082C0838A828B83E012061175
:100AD30000020A0BDD0AEE0AFC0A8A828B83A3A3B7
:100AE300E0F45589F58979000210CF8A828B83A3BC
:100AF300A3E0F4558AF58A80ED8A828B83A3A3E071
:100B0300F4558BF58B80DF79FF80DDC0E074F11243
:100B1300054DC2C5E58960487E0075080175090069
:100B2300EE780812044BAF08E5895F602CEEC333FF
:100B3300F8E433F9E82413F582E93401F583E0702E
:100B430002A3E0600EE82413F582E93401120B6876
:100B53001204B3EFF45589F5890EEEC3940840BA35
:100B63007F020205ACF583E0F8A3E0F583888222D7
:100B7300C0E074F112054DC2EBE58A60487E007552
:100B83000801750900EE780812044BAF08E58A5F87
:100B9300602CEEC333F8E433F9E82423F582E93417
:100BA30001F583E07002A3E0600EE82423F582E9F7
:100BB3003401120B681204B3EFF4558AF58A0EEE72
:100BC300C3940840BA8099C0E074F112054DC2E89D
:100BD300E58B60487E00750801750900EE78081200
:100BE300044BAF08E58B5F602CEEC333F8E433F9B5
:100BF300E82433F582E93401F583E07002A3E06071
:100C03000EE82433F582E93401120B681204B3EFC2
:100C1300F4558BF58B0EEEC3940540BA020B63C0FB
:100C230082C083A2AFE492E0FCC2AFE912061100D6
:100C330005680C420C540C590C5E0C680C630C9048
:100C4300013DEAF0A3EBF0ECA2E092AF79000210D1
:100C5300CF90013F80EC90014180E790014380E217
:100C630090014780DDECA2E092AF790180E0439AE6
:100C73000243AC0179002274F71204B5E9FE7B0646
:100C83007A1079801206A68B09A909747F59F9E4B1
:100C9300C9F8C39428E494004028C3E8943CE4943E
:100CA30000500309801CC3E8944AE49400500309EC
:100CB30080F1C3E89454E4940050050909098002C3
:100CC3007904EE6970B60208FCC082C083120C7A04
:100CD300E91206110004340D120DE50CF40C030D9A
:100CE300210D90013FE07002A3E0604590013F8039
:100CF3003A900141E07002A3E06036900141802BFD
:100D0300900143E07002A3E06027900143801C90B0
:100D1300013DE07002A3E0601890013D800D900159
:100D230047E07002A3E06009900147120B6A1204C6
:100D3300B30210CFC082C083E912061101036A0D0A
:100D43004B0D520D570D5E0D639001E590801863B6
:100D5300900280F7639010E590800C638002E58039
:100D6300900149E06401F00210CF74F11204B574EC
:100D7300FB12045E74011204A9EAF0A3EBF0A3ECE6
:100D8300F0A3EDF07A4A7B0174011204A9C082C07A
:100D93008390034D7808120365D083D082780812BC
:100DA300026750227401851082851183F01204A911
:100DB3007808120365780812035474011204A978A1
:100DC300081203748008E4851082851183F074018E
:100DD3001204A9780C120365900351780812036575
:100DE300780C7908120316E50824308A828B83F085
:100DF300A3AA82AB8374011204A9780C1203659031
:100E030003517808120365780C79081203167401EC
:100E13001204A9780C12037474011204A9C082C0CD
:100E23008390034D7808120365D083D0827808122B
:100E33000252709A851082851183E0600B742D8AAB
:100E4300828B83F0A30AAB83E4120E83784A790181
:100E530080198A828B83E0FC88828983E0120E8367
:100E6300EC88828983F0A3A882A983C3E89AE99BCB
:100E730040E07A4A7B0174051204747F0802051569
:100E83008A828B83F0EA24FF1AEB34FFFB2274F58A
:100E93001204B574D412045E8A088B098510828506
:100EA3001183AC82AD8375830275827F740E120346
:100EB30090740E1204A9AC82AD8375830275828D82
:100EC300741E12039090624AE0120647000A012141
:100ED3000F02F10E11270F81150F84030F85F70EF3
:100EE30089FD0E911B0FA5090FB50F0F2D0F7C4820
:100EF3007D02803A7C4D7D0280347C527D02802EBF
:100F03007C577D0280287C5C7D0280227C617D028F
:100F1300801C7C667D0280167C6B7D0280107C7059
:100F23007D02800A7C757D0280047C7A7D02750ACD
:100F330004750B00780A12060074071204A9AA822A
:100F4300AB831214617402120474906249E0C454B6
:100F53000F2430C0E0740B1204A9D0E0F0AA08AB50
:100F6300091214458A0A8B0BAE0AAF0B740E1204D6
:100F7300A9AA82AB83121445EA2EF8EB3FF9C3E822
:100F83009411E99400500BAC08AD09AA82AB83120B
:100F9300140F7ACD7B02790012090F7AD57B02797F
:100FA3000112090F7ADD7B02790212090F7AE57BC0
:100FB30002790312090F851082851183AA82AB83FC
:100FC30079011208C1740E1204A9AA82AB837902B3
:100FD3001208C17AAB7B0279031208C17B007A0045
:100FE30079011209477B017A0079021209477B02D2
:100FF3007A0179011209477B037A017902120947C1
:10100300742C12047402094274F21204B5890E8A14
:101013000C8B0DECFEEDFF740E1204A9780812037D
:1010230065AA08AB09AC0AAD0B120D6D8A088B09D2
:10103300A808A9097A00E50C7002E50D6020850C6B
:1010430082850D83E06017C0E01210B6D0E0F08512
:101053000C82850D83A385820C85830D8040888255
:101063008983E06013C0E01210B6D0E0F088828973
:1010730083A3A882A9838026EE7001EF601A8E8273
:101083008F83E06013C0E01210B6D0E0F08E828F41
:1010930083A3AE82AF8380061210B67420F00AEAEF
:1010A300C3941040917A567B01A90E1208C17F07A1
:1010B3000205158A08E5082456F582E43401F58310
:1010C30022C082C083900166E06401F0D083D082A5
:1010D30022C082C083900166E0600E900167E00445
:1010E300F0E0C394104002E4F080E1C082C083903A
:1010F3000166E0600D900167E07004740F8002E008
:1011030014F080C874F81204B51211647AC87B0213
:101113001209E3538CF7A2AFE492E0FEC2AF900151
:101123003374CCF0A3740CF07AC87B02120AC7EEB6
:10113300A2E092AF7AC47B107900120C22790012DC
:101143000C717AD47B107903120C227903120C717F
:101153007AEE7B107902120C227902120C710208CA
:101163002F53F5FE53FFFE43F70143F34022E49070
:101173000166F0750E03900167F012097C90618996
:10118300E04460F074099061FAF074159061B2F074
:10119300E49061AEF09061A3E0D2E6F0439A01D20D
:1011A300907AB57B02120E917AB87B0B1207747496
:1011B3004F9002C7F0121107740C906189F07E0002
:1011C3008E087509007403780812044BE50824EDB2
:1011D300FAE5093402FBEEF912090F0EEEC3940887
:1011E30040DE750F0075080075F005E508A4240BB3
:1011F30090618FF075E1EC75E1E3906199E060FA3D
:10120300906189E0D2E4F07AD07B071207439061C2
:1012130098E0FA75E1EF75E1EC906189E0C2E4F0E2
:10122300850F0A85080C750D007403780C12044BA6
:101233001213DFEAF00508E508C3941040AA750805
:10124300007E8075090085090C85080A750B0074FA
:1012530003780A12044BE50A2468F8E50B3401F914
:10126300E50C1213F7EEC39AA2D265D033501E8554
:10127300090A85080C750D007403780C12044BE5FC
:101283000C2468F8E50A28E439E0FE8001EE339582
:10129300E0FF0509E509C3940840ABEE2429FEEFFE
:1012A3003400FFC39400A2D265D03350047E008083
:1012B30010C3EE946FEF9400A2D265D03340047E46
:1012C3006E7F007402650E700478118002781A8EA6
:1012D3000A8F0BE8850AF0A4C8AAF0850BF0A42AAC
:1012E300F97A6E7B001203EA880A750900800CEA1A
:1012F300C39B14FBAA081209470509E509C3950E08
:10130300503AAA0A75F00974FF250EC39509A4FB88
:1013130074012509F9EBC39A40097B20AA08120836
:10132300B780D68B0C7408250CFCE43400FDEA9CD2
:10133300E49DC365D03340B77B0780B80508E50853
:10134300C394105003021244050FE50FC3940850D1
:10135300030211E8900166E0607C7A80750E0275E5
:10136300090085090A12140112044B1213DFE0FC71
:10137300EAC39CA2D265D033500E12140112044B5F
:101383001213EA1213F78001EA3395E0FB0509E52E
:1013930009C3940840CC74B12AF50874FF3BF509DE
:1013A3003395E0F50AF50B78081205FC7CC27D0243
:1013B300900167E0C333F8E433F9E8242DF582E9BB
:1013C3003403F583E0FAA3E0FB790312100B7404F2
:1013D3001204740211E5750E030211E51213EA28D3
:1013E300F582E439F58322E50C2468F8E50D340130
:1013F300F9E50A2228F582E439F583E0FA2290011F
:1014030067E0F50C750D007403780C2274F8120470
:10141300B5EAF8EBF98005A3AA82AB838A828B83B2
:10142300E070F48C828D83E0A3AC82AD838A828BDF
:1014330083F0A3AA82AB8370EAE8FAE9FB7F010297
:101443000515C082C0838A828B838001A3E070FC70
:10145300E582C39AFAE5839BFBD083D0822274F79B
:101463001204B574091204A9E0FEA3E0FFEAF8EB45
:10147300F98E088F0974FF25081E74FF3509FFE5EF
:10148300087002E50960358C828D83E0A3AC82ADE0
:10149300838A828B83F0A3AA82AB8370D4EEFCEFA2
:1014A300FD74FF2C1E74FF3DFFEC7001ED600DE435
:1014B3008A828B83F0A3AA82AB8380E1E8FAE9FBFB
:0514C3007F0202051587
:04000005000000D324
:00000001FF
